{
  "_format": "hh-sol-artifact-1",
  "contractName": "ZkBobDirectDeposit",
  "sourceName": "contracts/directDeposit.sol",
  "abi": [
    {
      "inputs": [
        {
          "internalType": "uint256",
          "name": "amount",
          "type": "uint256"
        }
      ],
      "name": "directDeposit",
      "outputs": [
        {
          "internalType": "uint256",
          "name": "depositId",
          "type": "uint256"
        }
      ],
      "stateMutability": "nonpayable",
      "type": "function"
    }
  ],
  "bytecode": "0x608060405234801561001057600080fd5b5061067a806100206000396000f3fe608060405234801561001057600080fd5b506004361061002b5760003560e01c8063e4548aa914610030575b600080fd5b61004a6004803603810190610045919061035e565b610060565b60405161005791906104e6565b60405180910390f35b60008073b0b195aefa3650a6908f15cdac7d92f8a5791b0b9050600073668c5286ead26fac5fa944887f9d2f20f7ddf289905060006040518060600160405280603f8152602001610606603f9139905060003390508373ffffffffffffffffffffffffffffffffffffffff1663095ea7b38468056bc75e2d631000006040518363ffffffff1660e01b81526004016100f992919061044f565b602060405180830381600087803b15801561011357600080fd5b505af1158015610127573d6000803e3d6000fd5b505050506040513d601f19601f8201168201806040525081019061014b9190610335565b5060008373ffffffffffffffffffffffffffffffffffffffff166302592d378368056bc75e2d63100000866040518463ffffffff1660e01b815260040161019493929190610478565b602060405180830381600087803b1580156101ae57600080fd5b505af11580156101c2573d6000803e3d6000fd5b505050506040513d601f19601f820116820180604052508101906101e69190610387565b90506102276040518060400160405280600e81526020017f4465706f7369742049443a20257300000000000000000000000000000000000081525082610231565b5050505050919050565b6102c982826040516024016102479291906104b6565b6040516020818303038152906040527fb60e72cc000000000000000000000000000000000000000000000000000000007bffffffffffffffffffffffffffffffffffffffffffffffffffffffff19166020820180517bffffffffffffffffffffffffffffffffffffffffffffffffffffffff83818316178352505050506102cd565b5050565b60008151905060006a636f6e736f6c652e6c6f679050602083016000808483855afa5050505050565b600081519050610305816105d7565b92915050565b60008135905061031a816105ee565b92915050565b60008151905061032f816105ee565b92915050565b60006020828403121561034757600080fd5b6000610355848285016102f6565b91505092915050565b60006020828403121561037057600080fd5b600061037e8482850161030b565b91505092915050565b60006020828403121561039957600080fd5b60006103a784828501610320565b91505092915050565b6103b981610539565b82525050565b60006103ca82610501565b6103d48185610517565b93506103e4818560208601610593565b6103ed816105c6565b840191505092915050565b61040181610581565b82525050565b60006104128261050c565b61041c8185610528565b935061042c818560208601610593565b610435816105c6565b840191505092915050565b61044981610577565b82525050565b600060408201905061046460008301856103b0565b61047160208301846103f8565b9392505050565b600060608201905061048d60008301866103b0565b61049a60208301856103f8565b81810360408301526104ac81846103bf565b9050949350505050565b600060408201905081810360008301526104d08185610407565b90506104df6020830184610440565b9392505050565b60006020820190506104fb6000830184610440565b92915050565b600081519050919050565b600081519050919050565b600082825260208201905092915050565b600082825260208201905092915050565b600061054482610557565b9050919050565b60008115159050919050565b600073ffffffffffffffffffffffffffffffffffffffff82169050919050565b6000819050919050565b600061058c82610577565b9050919050565b60005b838110156105b1578082015181840152602081019050610596565b838111156105c0576000848401525b50505050565b6000601f19601f8301169050919050565b6105e08161054b565b81146105eb57600080fd5b50565b6105f781610577565b811461060257600080fd5b5056fe51736e54696a58656b6a526d39684b6371356b4c4e50736136503448744d5272633352785678336a734c48656f32416979735978564a5038366d726948664ea264697066735822122083aed4dab8ef35b840297c80aac68c3d5f8011d260ac70724878563c9f6cd59864736f6c63430008000033",
  "linkReferences": {},
  "deployedLinkReferences": {}
}